:030000000208AF44
:0C08AF00787FE4F6D8FD75810702080090
:100869008FA0C290C291D2927F057E00120849C220
:08087900927F057E0002084990
:100881008FA0D290C291D2927F057E00120849C2F8
:08089100927F057E0002084978
:100899007F057E001208497F381208697F0C12080B
:0608A900697F06020869E8
:10084900E4FDFCC3ED9FEC9E5015E4FBFA0BBB00E5
:0F085900010ABA03F8BBE8F50DBD00010C80E4FD
:01086800226D
:100800001208997F801208697F411208817F441283
:1008100008817F491208817F541208817F5912088C
:10082000817F411208817FC01208697F4E120881C2
:100830007F491208817F4A1208817F411208817F17
:09084000561208817F450208816F
:00000001FF
