:03000000020946AC
:0C094600787FE4F6D8FD75810B0208B440
:1008F500444946464552454E5420434F44450041E0
:0D0905004449545941204E494A415645008D
:1008B4001209127F801208007BFF7A0879F512086A
:1008C4006C7FC01208007BFF7A09790412086C80DF
:0108D400E241
:100912007F057E001208D57F021208007F28120888
:0B092200007F0C1208007F0602080096
:100800008F08C2A5C2A6120891D2A77F057E00124A
:1008100008D5C2A77F057E001208D5E508C454F0AC
:10082000FF120891D2A77F057E001208D5C2A77FCC
:06083000057E000208D560
:100836008F0BD2A5C2A6120891D2A77F057E001201
:1008460008D5C2A77F057E001208D5E50BC454F073
:10085600FF120891D2A77F057E001208D5C2A77F96
:06086600057E000208D52A
:10086C008B088A09890AAB08AA09A90A12092D6002
:10087C0013050AE50A7002050914F912092DFF1275
:05088C00083680E222A5
:10089100EFC4540F139290EFC4135407139291EFC6
:1008A100C4131354031392A2EFC41313135401136B
:0308B10092B322DD
:1008D500E4FDFCC3ED9FEC9E5015E4FBFA0BBB0059
:0F08E500010ABA03F8BBE8F50DBD00010C80E471
:0108F40022E1
:10092D00BB010689828A83E0225002E722BBFE02C8
:09093D00E32289828A83E49322FB
:00000001FF
