:03000000020901F1
:0C090100787FE4F6D8FD75810C02087FB9
:1008BB008FA0C2B0C2B1D2B27F057E0012085FC258
:0808CB00B27F057E0002085F08
:1008D3008FA0D2B0C2B1D2B27F057E0012085FC230
:0808E300B27F057E0002085FF0
:1008EB007F057E0012085F7F381208BB7F0C120851
:0608FB00BB7F060208BBF2
:10089E0057656C636F6D6520486F6D6500416469C7
:0D08AE007479612041204E696A6176650011
:10087F001208EB7F801208BB7BFF7A08799E120863
:0F088F00007FC01208BB7BFF7A0879AB0208001C
:060800008B088A09890A39
:10080600E4F50BF50CAB08AA09A90A850C82850B41
:1008160083120832FF60141208D37F017E0012088B
:0B0826005F050CE50C70DE050B80DAAE
:0108310022A4
:10085F00E4FDFCC3ED9FEC9E5015E4FBFA0BBB00CF
:0F086F00010ABA03F8BBE8F50DBD00010C80E4E7
:01087E002257
:10083200BB010CE58229F582E5833AF583E022507B
:1008420006E92582F8E622BBFE06E92582F8E222C5
:0D085200E58229F582E5833AF583E49322DF
:00000001FF
