:030000000208F201
:0C08F200787FE4F6D8FD7581080208004C
:100800001208D77F801208497F411208807F441266
:1008100008807F491208807F541208807F5912088F
:10082000807F411208807FC01208497F4E120880E5
:100830007F491208807F4A1208807F411208807F1A
:09084000561208807F4502088071
:100849008F08C290C291E50854F0F5A0D2927F05B5
:100859007E001208B7C2927F057E001208B7E5082C
:10086900C454F0F5A0D2927F057E001208B7C29257
:070879007F057E000208B7B5
:100880008F08D290C291E50854F0F5A0D2927F056E
:100890007E001208B7C2927F057E001208B7E508F5
:1008A000C454F0F5A0D2927F057E001208B7C29220
:0708B0007F057E000208B77E
:1008D7007F057E001208B77F021208497F28120899
:0B08E700497F0C1208497F06020849F7
:1008B700E4FDFCC3ED9FEC9E5015E4FBFA0BBB0077
:0F08C700010ABA03F8BBE8F50DBD00010C80E48F
:0108D60022FF
:00000001FF
